{
  "_format": "hh-sol-artifact-1",
  "contractName": "Voting",
  "sourceName": "contracts/Voting.sol",
  "abi": [
    {
      "inputs": [
        {
          "internalType": "string",
          "name": "name",
          "type": "string"
        },
        {
          "internalType": "string",
          "name": "party",
          "type": "string"
        }
      ],
      "name": "addCandidate",
      "outputs": [
        {
          "internalType": "uint256",
          "name": "",
          "type": "uint256"
        }
      ],
      "stateMutability": "nonpayable",
      "type": "function"
    },
    {
      "inputs": [
        {
          "internalType": "uint256",
          "name": "",
          "type": "uint256"
        }
      ],
      "name": "candidates",
      "outputs": [
        {
          "internalType": "uint256",
          "name": "id",
          "type": "uint256"
        },
        {
          "internalType": "string",
          "name": "name",
          "type": "string"
        },
        {
          "internalType": "string",
          "name": "party",
          "type": "string"
        },
        {
          "internalType": "uint256",
          "name": "voteCount",
          "type": "uint256"
        }
      ],
      "stateMutability": "view",
      "type": "function"
    },
    {
      "inputs": [],
      "name": "checkVote",
      "outputs": [
        {
          "internalType": "bool",
          "name": "",
          "type": "bool"
        }
      ],
      "stateMutability": "view",
      "type": "function"
    },
    {
      "inputs": [],
      "name": "countCandidates",
      "outputs": [
        {
          "internalType": "uint256",
          "name": "",
          "type": "uint256"
        }
      ],
      "stateMutability": "view",
      "type": "function"
    },
    {
      "inputs": [
        {
          "internalType": "uint256",
          "name": "candidateID",
          "type": "uint256"
        }
      ],
      "name": "getCandidate",
      "outputs": [
        {
          "internalType": "uint256",
          "name": "",
          "type": "uint256"
        },
        {
          "internalType": "string",
          "name": "",
          "type": "string"
        },
        {
          "internalType": "string",
          "name": "",
          "type": "string"
        },
        {
          "internalType": "uint256",
          "name": "",
          "type": "uint256"
        }
      ],
      "stateMutability": "view",
      "type": "function"
    },
    {
      "inputs": [],
      "name": "getCountCandidates",
      "outputs": [
        {
          "internalType": "uint256",
          "name": "",
          "type": "uint256"
        }
      ],
      "stateMutability": "view",
      "type": "function"
    },
    {
      "inputs": [],
      "name": "getDates",
      "outputs": [
        {
          "internalType": "uint256",
          "name": "",
          "type": "uint256"
        },
        {
          "internalType": "uint256",
          "name": "",
          "type": "uint256"
        }
      ],
      "stateMutability": "view",
      "type": "function"
    },
    {
      "inputs": [
        {
          "internalType": "uint256",
          "name": "_startDate",
          "type": "uint256"
        },
        {
          "internalType": "uint256",
          "name": "_endDate",
          "type": "uint256"
        }
      ],
      "name": "setDates",
      "outputs": [],
      "stateMutability": "nonpayable",
      "type": "function"
    },
    {
      "inputs": [
        {
          "internalType": "uint256",
          "name": "candidateID",
          "type": "uint256"
        }
      ],
      "name": "vote",
      "outputs": [],
      "stateMutability": "nonpayable",
      "type": "function"
    },
    {
      "inputs": [
        {
          "internalType": "address",
          "name": "",
          "type": "address"
        }
      ],
      "name": "voters",
      "outputs": [
        {
          "internalType": "bool",
          "name": "",
          "type": "bool"
        }
      ],
      "stateMutability": "view",
      "type": "function"
    },
    {
      "inputs": [],
      "name": "votingEnd",
      "outputs": [
        {
          "internalType": "uint256",
          "name": "",
          "type": "uint256"
        }
      ],
      "stateMutability": "view",
      "type": "function"
    },
    {
      "inputs": [],
      "name": "votingStart",
      "outputs": [
        {
          "internalType": "uint256",
          "name": "",
          "type": "uint256"
        }
      ],
      "stateMutability": "view",
      "type": "function"
    }
  ],
  "bytecode": "0x6080604052348015600f57600080fd5b506112ba8061001f6000396000f3fe608060405234801561001057600080fd5b50600436106100b45760003560e01c806335b8e8201161007157806335b8e8201461019357806385a38635146101c6578063a3ec138d146101e4578063b0417e9814610214578063b86eda9114610232578063dedf141e14610250576100b4565b80630121b93f146100b95780630a84a217146100d5578063101158af146100f3578063164418131461011157806326541b56146101305780633477ee2e14610160575b600080fd5b6100d360048036038101906100ce9190610902565b61026c565b005b6100dd610421565b6040516100ea919061093e565b60405180910390f35b6100fb61042b565b604051610108919061093e565b60405180910390f35b610119610431565b604051610127929190610959565b60405180910390f35b61014a60048036038101906101459190610ac8565b610442565b604051610157919061093e565b60405180910390f35b61017a60048036038101906101759190610902565b6104e2565b60405161018a9493929190610bbf565b60405180910390f35b6101ad60048036038101906101a89190610902565b610622565b6040516101bd9493929190610bbf565b60405180910390f35b6101ce610791565b6040516101db919061093e565b60405180910390f35b6101fe60048036038101906101f99190610c70565b610797565b60405161020b9190610cb8565b60405180910390f35b61021c6107b7565b6040516102299190610cb8565b60405180910390f35b61023a61080b565b604051610247919061093e565b60405180910390f35b61026a60048036038101906102659190610cd3565b610811565b005b426004541115801561027f575042600354115b6102be576040517f08c379a00000000000000000000000000000000000000000000000000000000081526004016102b590610d5f565b60405180910390fd5b6000811180156102d057506002548111155b61030f576040517f08c379a000000000000000000000000000000000000000000000000000000000815260040161030690610dcb565b60405180910390fd5b600160003373ffffffffffffffffffffffffffffffffffffffff1673ffffffffffffffffffffffffffffffffffffffff16815260200190815260200160002060009054906101000a900460ff161561039c576040517f08c379a000000000000000000000000000000000000000000000000000000000815260040161039390610e37565b60405180910390fd5b60018060003373ffffffffffffffffffffffffffffffffffffffff1673ffffffffffffffffffffffffffffffffffffffff16815260200190815260200160002060006101000a81548160ff021916908315150217905550600080828152602001908152602001600020600301600081548092919061041990610e86565b919050555050565b6000600254905090565b60045481565b600080600454600354915091509091565b60006002600081548092919061045790610e86565b919050555060405180608001604052806002548152602001848152602001838152602001600081525060008060025481526020019081526020016000206000820151816000015560208201518160010190816104b391906110da565b5060408201518160020190816104c991906110da565b5060608201518160030155905050600254905092915050565b600060205280600052604060002060009150905080600001549080600101805461050b90610efd565b80601f016020809104026020016040519081016040528092919081815260200182805461053790610efd565b80156105845780601f1061055957610100808354040283529160200191610584565b820191906000526020600020905b81548152906001019060200180831161056757829003601f168201915b50505050509080600201805461059990610efd565b80601f01602080910402602001604051908101604052809291908181526020018280546105c590610efd565b80156106125780601f106105e757610100808354040283529160200191610612565b820191906000526020600020905b8154815290600101906020018083116105f557829003601f168201915b5050505050908060030154905084565b60006060806000846000808781526020019081526020016000206001016000808881526020019081526020016000206002016000808981526020019081526020016000206003015482805461067690610efd565b80601f01602080910402602001604051908101604052809291908181526020018280546106a290610efd565b80156106ef5780601f106106c4576101008083540402835291602001916106ef565b820191906000526020600020905b8154815290600101906020018083116106d257829003601f168201915b5050505050925081805461070290610efd565b80601f016020809104026020016040519081016040528092919081815260200182805461072e90610efd565b801561077b5780601f106107505761010080835404028352916020019161077b565b820191906000526020600020905b81548152906001019060200180831161075e57829003601f168201915b5050505050915093509350935093509193509193565b60035481565b60016020528060005260406000206000915054906101000a900460ff1681565b6000600160003373ffffffffffffffffffffffffffffffffffffffff1673ffffffffffffffffffffffffffffffffffffffff16815260200190815260200160002060009054906101000a900460ff16905090565b60025481565b600060035414801561082557506000600454145b610864576040517f08c379a000000000000000000000000000000000000000000000000000000000815260040161085b906111f8565b60405180910390fd5b8181116108a6576040517f08c379a000000000000000000000000000000000000000000000000000000000815260040161089d90611264565b60405180910390fd5b80600381905550816004819055505050565b6000604051905090565b600080fd5b600080fd5b6000819050919050565b6108df816108cc565b81146108ea57600080fd5b50565b6000813590506108fc816108d6565b92915050565b600060208284031215610918576109176108c2565b5b6000610926848285016108ed565b91505092915050565b610938816108cc565b82525050565b6000602082019050610953600083018461092f565b92915050565b600060408201905061096e600083018561092f565b61097b602083018461092f565b9392505050565b600080fd5b600080fd5b6000601f19601f8301169050919050565b7f4e487b7100000000000000000000000000000000000000000000000000000000600052604160045260246000fd5b6109d58261098c565b810181811067ffffffffffffffff821117156109f4576109f361099d565b5b80604052505050565b6000610a076108b8565b9050610a1382826109cc565b919050565b600067ffffffffffffffff821115610a3357610a3261099d565b5b610a3c8261098c565b9050602081019050919050565b82818337600083830152505050565b6000610a6b610a6684610a18565b6109fd565b905082815260208101848484011115610a8757610a86610987565b5b610a92848285610a49565b509392505050565b600082601f830112610aaf57610aae610982565b5b8135610abf848260208601610a58565b91505092915050565b60008060408385031215610adf57610ade6108c2565b5b600083013567ffffffffffffffff811115610afd57610afc6108c7565b5b610b0985828601610a9a565b925050602083013567ffffffffffffffff811115610b2a57610b296108c7565b5b610b3685828601610a9a565b9150509250929050565b600081519050919050565b600082825260208201905092915050565b60005b83811015610b7a578082015181840152602081019050610b5f565b60008484015250505050565b6000610b9182610b40565b610b9b8185610b4b565b9350610bab818560208601610b5c565b610bb48161098c565b840191505092915050565b6000608082019050610bd4600083018761092f565b8181036020830152610be68186610b86565b90508181036040830152610bfa8185610b86565b9050610c09606083018461092f565b95945050505050565b600073ffffffffffffffffffffffffffffffffffffffff82169050919050565b6000610c3d82610c12565b9050919050565b610c4d81610c32565b8114610c5857600080fd5b50565b600081359050610c6a81610c44565b92915050565b600060208284031215610c8657610c856108c2565b5b6000610c9484828501610c5b565b91505092915050565b60008115159050919050565b610cb281610c9d565b82525050565b6000602082019050610ccd6000830184610ca9565b92915050565b60008060408385031215610cea57610ce96108c2565b5b6000610cf8858286016108ed565b9250506020610d09858286016108ed565b9150509250929050565b7f566f74696e67206973206e6f74206163746976652e0000000000000000000000600082015250565b6000610d49601583610b4b565b9150610d5482610d13565b602082019050919050565b60006020820190508181036000830152610d7881610d3c565b9050919050565b7f496e76616c69642063616e6469646174652049442e0000000000000000000000600082015250565b6000610db5601583610b4b565b9150610dc082610d7f565b602082019050919050565b60006020820190508181036000830152610de481610da8565b9050919050565b7f596f75206861766520616c726561647920766f7465642e000000000000000000600082015250565b6000610e21601783610b4b565b9150610e2c82610deb565b602082019050919050565b60006020820190508181036000830152610e5081610e14565b9050919050565b7f4e487b7100000000000000000000000000000000000000000000000000000000600052601160045260246000fd5b6000610e91826108cc565b91507fffffffffffffffffffffffffffffffffffffffffffffffffffffffffffffffff8203610ec357610ec2610e57565b5b600182019050919050565b7f4e487b7100000000000000000000000000000000000000000000000000000000600052602260045260246000fd5b60006002820490506001821680610f1557607f821691505b602082108103610f2857610f27610ece565b5b50919050565b60008190508160005260206000209050919050565b60006020601f8301049050919050565b600082821b905092915050565b600060088302610f907fffffffffffffffffffffffffffffffffffffffffffffffffffffffffffffffff82610f53565b610f9a8683610f53565b95508019841693508086168417925050509392505050565b6000819050919050565b6000610fd7610fd2610fcd846108cc565b610fb2565b6108cc565b9050919050565b6000819050919050565b610ff183610fbc565b611005610ffd82610fde565b848454610f60565b825550505050565b600090565b61101a61100d565b611025818484610fe8565b505050565b5b818110156110495761103e600082611012565b60018101905061102b565b5050565b601f82111561108e5761105f81610f2e565b61106884610f43565b81016020851015611077578190505b61108b61108385610f43565b83018261102a565b50505b505050565b600082821c905092915050565b60006110b160001984600802611093565b1980831691505092915050565b60006110ca83836110a0565b9150826002028217905092915050565b6110e382610b40565b67ffffffffffffffff8111156110fc576110fb61099d565b5b6111068254610efd565b61111182828561104d565b600060209050601f8311600181146111445760008415611132578287015190505b61113c85826110be565b8655506111a4565b601f19841661115286610f2e565b60005b8281101561117a57848901518255600182019150602085019450602081019050611155565b868310156111975784890151611193601f8916826110a0565b8355505b6001600288020188555050505b505050505050565b7f566f74696e672064617465732061726520616c7265616479207365742e000000600082015250565b60006111e2601d83610b4b565b91506111ed826111ac565b602082019050919050565b60006020820190508181036000830152611211816111d5565b9050919050565b7f496e76616c696420766f74696e672064617465732e0000000000000000000000600082015250565b600061124e601583610b4b565b915061125982611218565b602082019050919050565b6000602082019050818103600083015261127d81611241565b905091905056fea26469706673582212208c1bc9b91494b33b8df017b3884a3b5f71090aacaa17701b6c39c32b5e673acc64736f6c634300081c0033",
  "linkReferences": {},
  "deployedLinkReferences": {}
}